:100000000C94CF020C9407030C9407030C94070381
:100010000C9407030C9407030C9407030C94070338
:100020000C9407030C9407030C94DB250C94AF2667
:100030000C94F5200C9407030C9407030C9407030D
:100040000C9407030C9407030C9407030C94070308
:100050000C9407030C947C210C9407030C94070365
:100060000C9407030C9407030C9407030C940703E8
:100070000C9407030C9407030C9407030C940703D8
:100080000C9407030C9407030C9407030C940703C8
:100090000C9407030C9407030C9407030C940703B8
:1000A0000C9407030C9407030C94070329001E000B
:1000B0001F0020002100220023002400250026002C
:1000C00027002D002E0031002B0014001A0008001C
:1000D000150017001C0018000C00120013002F0060
:1000E00030003500E30004001600070009000A0094
:1000F0000B000D000E000F003300340000002A003A
:10010000E10000001D001B000600190005001100A1
:100110001000360037003800E50028000000E0003D
:10012000E200000000002C000000000000000000C1
:1001300000006D00E400215201003A003B003C0049
:100140003D003E003F0040004100420043004400AB
:10015000450001003900207821782278027805785E
:1001600001000100010001004800520001004C00A4
:100170000100AA00A900A8000100010055005400D8
:100180004B004A0050004F0000004C0001000000EE
:1001900001000100010001000100570056004E005F
:1001A0004D005100225258000000010001000000E3
:1001B000000001000000000000000000000001003D
:1001C000010001000000000000000000000000002D
:1001D000000000000000000000000000000000001F
:1001E0000000237825782778297800000000000097
:1001F00000000000000000000000007C00002478E7
:10020000267828782A78000000000000000000000E
:1002100000000000000000000000000000000000DE
:1002200000000000000000000000000000000000CE
:1002300001000000000000000000000000000000BD
:1002400000000000000000000000000000000000AE
:100250001E0F0500047F3F1F643214643214783C83
:100260001E1E140A052223252628292A2C2D2F306C
:1002700032333536383A3B3D3E4042434547494AA2
:100280004C4E5051535557595A5C5E6062646668D3
:10029000696B6D6F71737577797B7D7F81838587DE
:1002A000898A8C8E90929496989A9C9E9FA1A3A5E1
:1002B000A7A8AAACAEAFB1B3B4B6B8B9BBBCBEBF09
:1002C000C1C2C3C5C6C7C9CACBCCCDCED0D1D2D28C
:1002D000D3D4D5D6D7D7D8D9D9DADADBDBDBDCDC97
:1002E000DCDCDCDDDDDDDDDCDCDCDCDCDBDBDBDA4F
:1002F000DAD9D9D8D7D7D6D5D4D3D2D2D1D0CECDBA
:10030000CCCBCAC9C7C6C5C3C2C1BFBEBCBBB9B8C6
:10031000B6B4B3B1AFAEACAAA8A7A5A3A19F9E9C4B
:100320009A98969492908E8C8A89878583817F7D16
:100330007B79777573716F6D6B6968666462605EF7
:100340005C5A5957555351504E4C4A4947454342C0
:10035000403E3D3B3A3836353332302F2D2C2A295A
:100360002826252322FFAA7F554000010101010113
:10037000010101010202020202020202020303035E
:10038000030303030304040404040404050505052E
:1003900005060606060607070707070808080809EE
:1003A0000909090A0A0A0B0B0B0C0C0C0D0D0D0E9A
:1003B0000E0E0F0F0F10101111111212131314142F
:1003C000151516161717181819191A1A1B1B1C1DA4
:1003D0001D1E1E1F202021222223242425262627FD
:1003E0002829292A2B2C2D2D2E2F3031323233342F
:1003F00035363738393A3B3C3D3E3F404142434435
:1004000045464748494A4C4D4E4F50515354555616
:1004100058595A5B5D5E5F616264656668696B6CC2
:100420006D6F7072737577787A7B7D7E808283853D
:1004300087888A8C8E8F91939596989A9C9EA0A27D
:10044000A3A5A7A9ABADAFB1B3B5B7BABCBEC0C287
:10045000C4C6C9CBCDCFD1D4D6D8DBDDDFE2E4E74B
:10046000E9EBEEF0F3F5F8FAFDFF100354006F002E
:100470006B0079006F003600300000001E0354004E
:100480006F006B0079006F0020004B006500790061
:1004900062006F0061007200640000000403090440
:1004A00009023B00020100A032090400000103011F
:1004B0000100092111010001224400070581030800
:1004C00000010904010001030000000921110100DD
:1004D00001226D00070582032000011201000200C5
:1004E00000000836546060010001020001050109A6
:1004F00080A101850319012AB700150126B70095CF
:100500000175108100C0050C0901A10185041901C4
:100510002AA002150126A002950175108100C005D0
:10052000010906A1018506050719E029E71500253F
:10053000019508750181020507190029EF150025AD
:100540000195F075018102050819012905950575C8
:10055000019102950175039101C005010906A101F0
:10056000050719E029E715002501950875018102A5
:100570009501750881010507190029FF150026FF5F
:100580000095067508810005081901290515002543
:1005900001950575019102950175039101C0112422
:1005A0001FBECFEFDAE0DEBFCDBF04B603FE18C03A
:1005B00080915F0390916003A0916103B091620309
:1005C0008730904BA740B04B59F410925F031092C4
:1005D00060031092610310926203E0E0F8E3099572
:1005E00011E0A0E0B1E0EEEDF5E502C005900D925E
:1005F000A23EB107D9F723E0A2EEB1E001C01D92FF
:10060000AF35B207E1F70E94F5120C94642A0C94FE
:1006100000008330B8F46530A8F44E3098F450E010
:100620009EE0699F400D511D1124FA0196E4899FB7
:10063000E00DF11D1124EE0FFF1FE455FF4F8591D2
:100640009491089581E090E008950E94090308952F
:1006500081E008950E942803089581E008950E9492
:10066000280308950E942F03089508950E943503DA
:100670000895A6E0B0E0EFE3F3E00C94102949837D
:100680005A839E833091E90189819A8131111AC080
:100690003E81332399F0222389F00E944D09182FBF
:1006A000682F89819A810E94290969817A81812F25
:1006B0000E9468102696E3E00C942C290E943B09C6
:1006C000182FF3CF0E944D0969817A81F1CFFC0187
:1006D000262F4081518162817381848195810E949E
:1006E00039030895CF93DF93EC0161E00E94670323
:1006F000BE010E942A03DF91CF910895CF93DF932B
:10070000EC0160E00E946703BE010E943603DF91A6
:10071000CF91089521E030E0A90102C0440F551F98
:100720008A95E2F7CA010E944B080895CF93C82F1B
:1007300081E090E00C2E02C0880F991F0A94E2F726
:100740000E94B90D8C2F0E948A03CF91089581E0F9
:1007500008950E94A7030895CF93C82F0E94FE0713
:100760008C2F0E94A9032FEF84E39CE0215080404E
:100770009040E1F700C00000CF91089581E00E9411
:10078000AC030E94A021089580E00E94AC030E9467
:10079000C42108950F931F93CF93DF938C0161E0E1
:1007A0000E946703EC01F801858181110E94701A93
:1007B000B801CE010E943203811106C080E0DF91B2
:1007C000CF911F910F910895B801CE010E94561B41
:1007D0008823A1F3B801CE010E94AB1E882371F3D8
:1007E000B801CE010E946B1D882341F3B801CE01F0
:1007F0000E94411D882311F3B801CE010E940F13FE
:100800008823E1F2B801CE010E946C118823B1F275
:10081000F8018581882361F0C330FCE7DF07E9F048
:1008200058F4C115ECE7DE07A9F0C130DC47B9F098
:10083000C8010E942D03C3CFCB358CE7D807A9F0A0
:10084000CC35ECE7DE0771F0CA35DC4789F70E944A
:10085000940DEECF0E94BE03B1CF0E949C0D0E946A
:10086000C403ACCF0E948A0DE3CF0E94980DE0CF65
:100870000E94D12080E00E94351B0E945D040895F3
:100880000E94851A0E9461040E94D620089581E08A
:1008900008950895CF93DF93D82F0E944704C82F5F
:1008A000882319F08D2F0E9449048C2FDF91CF915E
:1008B000089508950E944A04089580E00E945A0411
:1008C00008950E94F41E0E945A040895CF930E9436
:1008D000F41EC82F8091E4018C1779F0C093E401D5
:1008E0000E9461216093E5017093E6018093E70126
:1008F0009093E8018C2F0E945A04CF910895ADE0A7
:10090000B0E0E5E8F4E00C941129488759876A873C
:100910007B878C879D8791110E949A0C1F8286E0AD
:10092000FE013896DE01119601900D928A95E1F74D
:100930008D8181110DC029813A814B815C816D814E
:100940007E818F810E94E40B2D96E2E00C942D298C
:10095000CE0101960E9472038111EDCFF5CFFC010B
:100960002481213021F4808191810E947F090895A2
:10097000CF93C82F8823C9F08238C9F40E94011F81
:1009800081FD13C089E30E9415200E942E0D2FEFD8
:1009900087EE93E0215080409040E1F700C00000D6
:1009A00089E30E942F200E942E0DCF910895833855
:1009B000A1F40E94011F80FDF8CF83E50E9415205D
:1009C0000E942E0D2FEF81EE94E021508040904048
:1009D000E1F700C0000083E5E4CF8438A1F40E9471
:1009E000011F82FDE2CF87E40E9415200E942E0D98
:1009F0002FEF81EE94E0215080409040E1F700C05D
:100A0000000087E4CECF8CEF8C0F813A98F48C2FC6
:100A10000E940A1D8111C9CF8C2F0E94891F882333
:100A200029F08C2F0E942F200E942E0D8C2F0E94C7
:100A30001520B9CF80E28C0F883048F4C77081E070
:100A400001C0880FCA95EAF70E947D0CACCFEBE598
:100A5000EC0FE33040F4F0E0E15AFE4F808190E08B
:100A60000E941D1FA2CFC85ACB3108F09ECFEC2F99
:100A7000F0E0EE0FFF1FE75DFE4F808191810E9445
:100A8000421F93CF882309F44DC0823879F40E9425
:100A9000011F81FF47C089E30E9415200E942E0D8F
:100AA00089E30E942F200E942E0D0895833859F467
:100AB0000E94011F80FF36C083E50E9415200E941E
:100AC0002E0D83E5EECF843859F40E94011F82FF7A
:100AD00029C087E40E9415200E942E0D87E4E1CFF3
:100AE0009CEF980F913AE8F290E2980F983050F40A
:100AF000877091E001C0990F8A95EAF7892F0E94CB
:100B0000830CD1CF9BE5980F933028F490E080E0E0
:100B10000E941D1F0895885A8B3120F490E080E0D8
:100B20000E94421F08951F93CF93DF93182FEB016C
:100B30000E94B804209739F4812F0E944205DF916A
:100B4000CF911F9108958FE99FE00197F1F700C0C1
:100B500000002197EFCF70E060E0893311F460E589
:100B600070E00E9493050895882321F00E947D0C77
:100B70000E942E0D0895882321F00E94830C0E946C
:100B80002E0D0895B0E0A0E0E8ECF5E00C940A2901
:100B90006C01D62FC72FFC011581068102950F70BD
:100BA0000E94730CE82E8823F9F0E12E1123E1F066
:100BB0008C2F807F803461F080E28D0F883008F1C7
:100BC0008C2F807E803221F4D230D8F00023C9F0FF
:100BD0008091120382FF15C082E00E945E0D0E9488
:100BE000730C91E0E82EE926BC2EB2949FE0B92266
:100BF000FBE0FB15B8F1EB2DF0E0EA59F54D0C9454
:100C0000CA28E12CF1CF0C2F0F70C07F11F0029594
:100C1000007F112399F0002359F080E28D0F883076
:100C200010F0D11107C0802F0E947D0C0E942E0D64
:100C30008D2F5AC0802F0E948D0CF8CF8D2F0E94CF
:100C40004205002379F080E28D0F883010F0D11139
:100C500004C0802F0E94830C03C0802F0E94930C3D
:100C60000E942E0DEB2DE850FF0B349720F40E94CC
:100C7000F41E0E945A04EE2089F00E946F0C80FD41
:100C80000DC0F60115820E94690C0E948708C601FA
:100C90000E94C9070E94690C0E949708CDB7DEB771
:100CA000E9E00C9426292C2F2F70F22EC07FC03241
:100CB00019F0F29480EFF822DD2341F0D130D1F128
:100CC000112309F444C00023F1F0B2CF8091120344
:100CD00082FD15C0112359F0FF2029F08F2D0E94AD
:100CE0007D0C0E942E0D80E00E94B804BBCF80E0F6
:100CF0000E944205FF2009F4B5CF8F2DABCF112301
:100D000069F0011104C08F2D0E94B405ABCF0130F2
:100D100009F0A8CF8F2D0E94B10CA4CF0111A2CF52
:100D20008F2D0E94BB058F2D0E94BD0C8F2D0E9420
:100D3000A10C98CF112321F0063008F093CFE3CF18
:100D4000053008F08FCF8F2D0E94BB058BCF00237D
:100D5000D1F3D93349F43FEF87EE93E0315080402F
:100D60009040E1F700C000008D2F0E9442057ACF2D
:100D70008C2F86958695837069F0813009F072CF4B
:100D80008D2F9C2F9370111102C080E090E00E9483
:100D9000421F68CF8D2F9C2F9370111102C080E0ED
:100DA00090E00E941D1F5ECF8C2F8370A1F5111162
:100DB00059CF4D2F429546954770440F440F2D2F24
:100DC0002F7030E0042E02C0220F331F0A94E2F786
:100DD00090E080E0D4FF09C08FE090E002C0880F6F
:100DE000991F4A95E2F780959095C695C695C37070
:100DF000822B932BC23049F058F4C13019F00E9475
:100E0000570830CF0E944E082DCF0E9460082ACF8D
:100E10000E944B0827CF8695112311F08C2F8170EB
:100E2000882309F41FCF4D2F429546954770440FF4
:100E3000440F2D2F2F7030E0042E02C0220F331FDD
:100E40000A94E2F790E080E0D4FF09C08FE090E0E0
:100E500002C0880F991F4A95E2F780959095C69534
:100E6000C695C370822B932BC23049F058F4C13021
:100E700019F00E94C208F6CE0E94B908F3CE0E9473
:100E8000CB08F0CE0E946F08EDCECF70112329F071
:100E90008C2F0E9487088D2F37CF8D2F0E94BB0586
:100EA0008C2F0E949708DECED23F41F160F4D03FF4
:100EB000B9F0D13F81F0112309F443C00111B8CE3C
:100EC0008C2F8F711FC0D33F01F1D43FA1F78091C8
:100ED000120382FD24C08C2F8F71112311F312C0D5
:100EE000112341F0053008F0BDCE8C2F8F710E9488
:100EF000A908B8CE063008F0B5CEF7CF8C2F8F7189
:100F00001111CFCF0E948708ADCE112329F08C2F6D
:100F10008F710E947B08A6CE0E947608A3CE112373
:100F200031F063E08C2F8F710E94400D9BCE81E0E9
:100F30000E945E0D023008F495CE82E00E945E0DA4
:100F400091CE002359F0D93309F00ECFEFEFF7EE31
:100F500023E0E150F0402040E1F704CF8C2F8F7167
:100F6000A0CF0F931F93CF93DF93EC01688179811A
:100F70008D810E948A098C010E94D4080E944A082F
:100F8000B801CE010E94C205DF91CF911F910F9150
:100F90000895CF93DF93EC018C81882399F0CE01E3
:100FA0000E94CA03811111C00E94730C882351F062
:100FB0008D81882339F08091120382FF03C082E083
:100FC0000E945E0DDF91CF910895CE010E94B1077E
:100FD000CE010E947E03F6CF90E080E00E941D1FAC
:100FE00090E080E00E94421F0E949A0C0E942E0D09
:100FF00008950E9449200E94EC0708950E948A0CDF
:101000000E94F907089592959F70963091F058F4D8
:10101000925F9F70923058F4803F19F030F4883E10
:1010200030F481E008959A5FF4CF843FD1F380E0FB
:101030000895883EB0F3813FD1F7F3CFFC012481BE
:10104000222339F0808191810E947F090E94030848
:10105000089580E00895A6E0B0E0E1E3F8E00C94A4
:1010600011292696E2E00C942D29A7E0B0E0EBE3ED
:10107000F8E00C9411292796E2E00C942D290895AC
:101080000E943F0808950E944008909311028093A7
:101090001002089508950E944308089520911002B7
:1010A00030911102822B932B0E94430808952091C6
:1010B000100230911102822393230E944308089565
:1010C0002091100230911102822793270E94430839
:1010D00008950E943F0808950E94690808950E949B
:1010E0006C0890930F0280930E02089590E080E0C8
:1010F0000E946F08089521E030E0A90102C0440F6A
:10110000551F8A95E2F7CA010E946F08089521E0F1
:1011100030E002C0220F331F8A95E2F780910E0261
:1011200090910F02822B932B0E946F08089521E06B
:1011300030E002C0220F331F8A95E2F720953095E8
:1011400080910E0290910F02822393230E946F08D8
:10115000089521E030E002C0220F331F8A95E2F7A4
:1011600080910E0290910F02822793270E946F08B0
:10117000089520910E0230910F02822B932B0E9432
:101180006F08089520910E0230910F02822393235D
:101190000E946F08089520910E0230910F0282275D
:1011A00093270E946F0808950895262F277091E0D5
:1011B00001C0990F2A95EAF723E0769567952A955D
:1011C000E1F7660F771F660F771FFA01E60FF71F2B
:1011D00050E040E0682F70E08191DF0111979B01A2
:1011E000042E02C0369527950A94E2F721702195C6
:1011F0002827292328272C934F5F5F4F4430510520
:1012000059F70895A82FA77023E0969587952A95FA
:10121000E1F7880F991F880F991FFB01E80FF91F4D
:1012200050E040E080E0219130E00A2E02C0369587
:1012300027950A94E2F721703327042E01C0220F6C
:101240000A94EAF7822B4F5F5F4F4430510559F7FC
:101250000895262F953070F48E3060F4682F70E07A
:101260008EE0989F600D711D11244AEE51E0822F8F
:101270000E94D5080895292F953068F48E3058F4CF
:1012800090E06AEE71E03EE0239F800D911D1124F5
:101290000E940209089580E00895B0E0A0E0E3E52F
:1012A000F9E00C940A297C0100910E0210910F02C2
:1012B0008091100290911102082B192BCFE0D0E001
:1012C000CC24C394D12CBC2EC6010C2E02C0880F96
:1012D000991F0A94E2F780239123892B49F42197DF
:1012E00090F7B12C8B2DCDB7DEB7E9E00C94262911
:1012F000B7018C2F0E947410019789F3F3CFCF931D
:10130000DF93EC010E944D09BE010E947410DF9131
:10131000CF9108951F93CF93DF93EB019091E90153
:10132000992339F0CB010E947F09DF91CF911F9162
:101330000895882369F0CB010E944D09182F682F6A
:10134000CE010E942909BE01812F0E947410EDCFA9
:10135000CB010E943B09182FF6CF1F93CF93DF9349
:10136000C091120217E0809113028C1304C0DF9128
:10137000CF911F910895D0E01C9FF0011D9FF00DAB
:101380001124EC5EFD4F20813181428153816481C3
:10139000758186810E9435082196C770E4CF20911F
:1013A0004C0230914D0240914E0250914F0260919B
:1013B000500270915102809152020E9435080895A6
:1013C000CF93DF9380915202807F09F04DC08091CE
:1013D0005102882309F448C0E0911202509113028F
:1013E000C0914D02D0914C0260914E0270914F021B
:1013F00047E05E17C9F18E2F90E0E49FF0011124C1
:10140000EC5EFD4F2481222391F1489FF001499F1A
:10141000F00D1124DF01AC5EBD4F11962C91119798
:101420002C1325C02C912D1322C015962C911597A5
:1014300021111DC012962D913C91261B370B283C83
:101440003105A8F4809152028F708061809352021E
:10145000E65EFD4F80818F70806180838CE492E036
:101460000E94C9070E94AD09DF91CF910895FC0148
:101470003196E770BECF482F20911202909113024F
:1014800057E0291302C080E0089530E0529FF00138
:10149000539FF00D1124EC5EFD4F8181681306C04F
:1014A0008081481303C085818111EECF2F5F3F4FAC
:1014B0002770E7CFA4E1B0E0E0E6FAE00C9407295A
:1014C0008C0186E0F801DE011F9601900D928A954D
:1014D000E1F7F8018481E5809CE4A92E92E0B92E21
:1014E0009091500291111FC08823D1F0EE20A9F0F5
:1014F000C8010E941E08F82E882379F087E0F801C1
:10150000D50101900D928A95E1F7C5010E94AF04C3
:101510000E94E0090E94CF095FC0C8010E94C9076C
:10152000FF24F39459C0C080D18082809380F090D2
:10153000510220914E0230914F02A401421B530BE5
:10154000FF2009F4F9C0483C510508F0A7C08823E2
:1015500009F442C090914D0280915202282F207FC1
:1015600009F05CC09D1116C090914C02C91212C0C6
:10157000E1104EC08F708061809352020E94CF09AB
:101580008CE492E00E94C90780915202F8018683A0
:10159000F12C22C0E1103CC06D2D8C2D0E943B0A25
:1015A0006D2D8C2D0E943B0AE82E8111F1CFCF8644
:1015B000D88A8F8598890E947F09292F22952F70BC
:1015C000243078F49F702230A8F09923B9F0F80104
:1015D0009681907F99F4FE2C8F2D6496ECE00C940C
:1015E00023292A5F2F70223068F0C8010E94C907A2
:1015F000EF2CF1CF992311F0882369F3805E8830B6
:1016000050F3F3CF803F38F3815F833070F7E3CF3F
:1016100080915202816080935202BACF9D1113C013
:1016200090914C02C9120FC0E1100DC08683C80111
:101630000E94C90787E0F801ACE4B2E001900D9286
:101640008A95E1F767CFC8010E941E08882309F434
:1016500064CFEE2009F461CF80915202803288F08D
:1016600020914C0230914D02398728879B868A86CB
:10167000909150029C871D868E87CE0108960E940D
:10168000C90787E0F801ACE4B2E001900D928A95B9
:10169000E1F70E94E0090E94CF0942CF90915202E7
:1016A000292F207FA1F4682D9A8A898AA6017A8938
:1016B0009E2D0E942B088CE492E00E94C90787E0CF
:1016C000F50111928A95E9F70E94CF0961CF88232D
:1016D00009F482CF80914D028D1110C080914C028F
:1016E000C8120CC0E1100AC09683C8010E94C90745
:1016F00087E0F50111928A95E9F76ECFC8010E9443
:101700001E08882309F409CFEE2009F406CF809142
:101710005202803208F4B5CF20914C0230914D0234
:101720003A8329839C828B82909150029D831E82F2
:101730008F83CE010196A3CF483C5105B8F588238D
:1017400009F4EECEFE2CEE2009F4E7CE80914D0296
:101750008D111EC080914C02C8121AC08091520295
:1017600080FD0DC0982F907F51F08683903F09F443
:101770005ECF982F907F905F8F70892B57CF87E037
:10178000F801ACE4B2E001900D928A95E1F724CF24
:10179000C8010E941E08811174CF8091520281609D
:1017A00080935202C8010E94C90716CF682D9A8AF9
:1017B000898AA6017A899E2D0E942B0887E0F5016F
:1017C00011928A95E9F7A6CEAEE0B0E0EAEEFBE032
:1017D0000C941029288739874A875B876C877D8717
:1017E0008E87CE0108960E945A0A8823B1F06C8534
:1017F000662341F0288539854A855B857D858E8500
:101800000E94350817E0809112029091130289130B
:101810003DC02E96E3E00C942C2987E0FE0138961B
:10182000DE01119601900D928A95E1F78C8588234F
:1018300049F32091130230E0C9010196877099277E
:10184000409112024817190699F097E0929FD00133
:10185000939FB00D1124AC5EBD4FFE0131960190F7
:101860000D929A95E1F7809313020E94AD09CACFB9
:101870000E94FE07109213021092120287E0ECE41D
:10188000F2E0DF011D928A95E9F7BCCF819FC0018C
:1018900011248C5E9D4F0E945A0A882309F4B9CF07
:1018A000E09112021E9FF0011124EC5EFD4F208199
:1018B0003181428153816481758186810E9435081E
:1018C0008091120290E0019687709927809312020E
:1018D0009ACF80917B028695869586950895809112
:1018E0007B028770089590917B02977081E009F4E4
:1018F00080E008958091A70208959091A702892B16
:101900008093A702089580959091A70298239093C1
:10191000A70208951092A70208959091A602892B1C
:101920008093A602089580959091A60298239093A3
:10193000A60208951092A602089508950E949D0C93
:10194000089590917C02292F282331F080958923D6
:1019500080937C020E949E0C089508950E94AD0C15
:10196000089590917D02292F2823281729F0982B7C
:1019700090937D020E94AE0C089590917D02292FD4
:10198000282331F08095892380937D020E94AE0C3C
:10199000089580917D02882329F010927D0280E0D5
:1019A0000E94AE0C0895CF93C091A7028091A60229
:1019B000C82B80917D02882331F0C82B0E94671FBD
:1019C00081110E94C90C8C2FCF910895CF93DF9382
:1019D000C0910601D09107010E94D30C8883C09169
:1019E0000601D091070148E050E063E772E0CE01C4
:1019F0000E94D729892B59F088E0FE01A3E7B2E0C5
:101A000001900D928A95E1F7CE010E94041FDF91AB
:101A1000CF910895CF93DF93C0910401D091050138
:101A20000E94D30C8983C0910401D091050140E24A
:101A300050E063E572E0CE010E94D729892B59F06E
:101A400080E2FE01A3E5B2E001900D928A95E1F7F4
:101A5000CE010E940F1FDF91CF9108950E94AC200C
:101A6000813039F48091110387FF03C00E940A0D71
:101A700008950E94E60C089508950E943C0D089573
:101A80009091120392FF11C098E0899F9001112458
:101A9000622B60937B020E94870880917B0286956F
:101AA000869586950E943D0D08950E9487080895A9
:101AB00010927B0280E00E943D0D089590917B0280
:101AC0008095892380937B02282F277069F48917DA
:101AD00059F09091120392FF07C0869586958695DE
:101AE0000E9497080E94580D08959091120392FB4E
:101AF000222720F9281769F080FB92F990931203AE
:101B000080911103909112030E94C40D82E00E9403
:101B10005E0D08958091120382FB882780F991E081
:101B200089270E94750D089581E00E94750D089522
:101B300080E00E94750D08956FEF7FEF90E080E0E8
:101B40000E942F2A089590E080E00E94FB2921E066
:101B5000853E9E4F09F020E0822F089582E090E0BC
:101B60000E94ED29089583E090E00E94ED2990E025
:101B70000895682F83E090E00E94112A089584E080
:101B800090E00E94FB290895BC0184E090E00E944F
:101B90002F2A0895AB01BC018FE090E00E94232A18
:101BA0000895AB01BC0183E190E00E94232A0895CF
:101BB00060E070E0CB010E94D10D089560E070E01C
:101BC000CB010E94CA0D0E94D80D0895A8E0B0E094
:101BD000ECEEFDE00C94112965EE7EEF90E080E0E4
:101BE0000E942F2A60E082E090E00E94112A81E0AA
:101BF00090E090931102809310020E94B90D60E072
:101C000074E184E090E00E942F2A60E086E090E09A
:101C10000E94112A60E087E090E00E94112A40E0D3
:101C200050E0BA0188E090E00E94232A60E083E25D
:101C300090E00E94112A60E08CE090E00E94112A5E
:101C400060E08DE090E00E94112A19821A821B82C6
:101C50001C821D821E821F82188648E050E067E1C8
:101C600070E0CE0101960E94012A40E050E0BA01E6
:101C70008FE190E00E94232A0E94DE0D2896E2E088
:101C80000C942D290E94E60D0895682F8EE090E0B7
:101C90000E94112A0895A6E0B0E0E1E5FEE00C9470
:101CA0000F290E9455218C018091A8029091A902D0
:101CB0008017910781F019821A820E945521682F9E
:101CC00049815A81792F80E090E00E947F0410932F
:101CD000A9020093A8022696E4E00C942B290E9406
:101CE00061216093B8027093B9028093BA02909315
:101CF000BB026093B4027093B5028093B6029093D6
:101D0000B7020895089508950E94820E08950895D7
:101D10000E94870E08958AE691E10E940A130E94AC
:101D2000830E0E94840E089581E008950E94940E0F
:101D300008950E94940E0895089508950E949C0E9F
:101D40000E949D0E08950E94A30D811102C00E9461
:101D5000420E0E94AE0D8093BC020E94BF0D909374
:101D60001203809311030E94951C0E94B30D0E94E0
:101D70004B0880910E0290910F020E946C0808950A
:101D80000E944C210E944C120E94A30E0E945904F2
:101D90000E94281C0E94851A0E9490190E94880E99
:101DA0000895A6E0B0E0E7EDFEE00C9405290E945E
:101DB000960E81110CC00E944B0E0E94711A0E9457
:101DC000271C0E9466042696EEE00C9421290E94AE
:101DD00062122AEA822E22E0922E640110E0F601BD
:101DE000E190F1906F01812F0E9486111F5F1530E5
:101DF00009F44BC0E816F90691F38091BC0281FD0D
:101E00000E948F110E94990E782E10E06624639430
:101E1000812F0E9486117C01F401A190B1904F01A5
:101E20008A159B0561F100E0CC24C394D12CAE242B
:101E3000BF24C5018C219D21892BC1F07720B1F0F1
:101E400009831A830E9455219C838B836D8221E034
:101E5000C7018C219D21892B09F420E049815A81F9
:101E60006B817C818D81922F0E947F040F5FCC0C4F
:101E7000DD1C0E30F1F6F4013297F182E0821F5F33
:101E8000153031F60E946F0E98CFE816F90609F06A
:101E9000B4CF91CF1F93CF93DF930E947910EC01C1
:101EA000C11580E5D807F0F5C11580E4D80708F022
:101EB0009CC0C03ED10520F5CD3CD10508F082C0C4
:101EC000C83AD10578F4C53AD10508F073C0C130DD
:101ED000D10519F1209709F1C430D105F0F4D0E013
:101EE000C0E01BC0C33CD105D0F7C85AD0E0CC0F2E
:101EF000DD1FCE59DE4F0990D881C02DD4640DC0AE
:101F0000C11580E2D80708F0D1C0C11581E0D8071B
:101F100008F05AC0C83ED10510F7CE01DF91CF912D
:101F20001F910895C03682E5D80718F5C03482E5C0
:101F3000D80708F06BC0C03282E5D80708F05FC050
:101F4000C11582E5D80708F497C02C2F2695269551
:101F500080E2289F900111248C2F8370C1E0D0E093
:101F600002C0CC0FDD1F8A95E2F7C22BD32BDD68B0
:101F7000D4CFC03A82E5D80760F4C03882E5D807EC
:101F800008F459C0CF71D0E0DC2FCC27C46FD06AE1
:101F9000C4CFC03C82E5D80708F462C0C03E82E5E9
:101FA000D80708F09CCFDC2FCC27CC27DF71C06F7F
:101FB000D06AB3CFC55AD0E0C856DE4FC881D0E052
:101FC000D064ABCFD065A9CF8D2F0E941B11182FE5
:101FD000CE0199270E947910C12FD0E0DC2FCC27A9
:101FE000CC27DF71C82BD92B98CFCE0199270E941F
:101FF0007910CC27DF70C82BD92BD06A8ECFCF7148
:10200000D0E0DC2FCC27C16FD06A87CF2C2F26954C
:102010002695277080E2289F900111248C2F8370D1
:10202000C1E0D0E002C0CC0FDD1F8A95E2F7C22BE1
:10203000D32BDC6872CF2C2F26952695277080E253
:10204000289F900111248C2F8370C1E0D0E002C042
:10205000CC0FDD1F8A95E2F7C22BD32BDA685DCF58
:102060008C2F8F710E941B11C82FD0E0DC2FCC2742
:10207000CC27DF71D06251CF8C2F8F710E941B1142
:1020800055E0D695C7955A95E1F7CF70D0E0DC2F93
:10209000CC27282F30E084FF05C044E0220F331FF7
:1020A0004A95E1F7C22BD32BD06937CF8D2F8F7193
:1020B0000E941B11182FCE0199270E947910C12F61
:1020C000D0E0DC2FCC27CC27DF71C82BD92BD2CF87
:1020D000462F753030F46E3020F4672F0E942503B0
:1020E000089590E080E008950E9468100E944A0FD1
:1020F000089582389105B9F1B0F48133910509F45E
:102100007DC048F48932910509F46DC08A32910589
:1021100009F47BC008958533910509F45FC08933C4
:10212000910509F10895833E9105D9F138F4803E77
:10213000910529F1823E910579F10895863E910538
:10214000D9F1873E910509F43EC0843E910541F5E1
:102150002091120321FF24C08091110384FD19C036
:1021600087EE90E0089520911103237009F05AC082
:102170002091120323FF14C089E290E0089520917A
:10218000110320FD38C03091120330FF09C024FF35
:1021900043C090E080E008952091110322FDF7CF25
:1021A00008952091110322FD3AC03091120330FDB1
:1021B00039C024FFF5CFEDCF2091110323FFF0CFDD
:1021C00024FDE7CFCDCF2091110323FD2EC0309108
:1021D000120331FFEECF84EE90E0089520911103B9
:1021E00025FFDECFC9CF2091110325FD21C020910D
:1021F000120323FFD5CF89E390E0D2CF20911103C2
:1022000026FFCECF8AE290E008952091110326FFA9
:10221000C7CF81E390E0089583EE90E0089582EEC9
:1022200090E0089580EE90E0089586EE90E00895A5
:1022300085E390E008959091110392FF10C041E072
:10224000282F2471243009F040E031E0282F287134
:10225000283009F030E0431711F02CE0822793FF7B
:1022600010C041E0282F2471243109F040E031E012
:10227000282F2871283109F030E0431711F02CE0A5
:1022800082273091120330FF10C051E0282F2171B6
:10229000213009F050E041E0282F2871283009F062
:1022A00040E0541711F029E0822731FF10C041E0CF
:1022B000282F2171213109F040E031E0282F2871C9
:1022C000283109F030E0431711F029E0822794FD0E
:1022D000877E089580E00895CF939C01205E32456B
:1022E000C1E02032310538F4FB01C581C11103C0C2
:1022F0008F710E9496038C2FCF91089508950E94AC
:102300007E11089508950E9482110895E82FF0E04B
:10231000EE0FFF1FE35EFC4F8081918108950895C9
:1023200080EA8A95F1F7089500C008950E949011FF
:102330000895F894E82FE295EF70F0E031A1282F8E
:102340002F7081E090E001C0880F2A95EAF7982F5E
:102350009095932391A392A1892B82A378940895B9
:102360000F931F93CF93DF93CBE9D1E089918F3FF8
:1023700011F00E94991181E0C93AD807B9F7C9EA6A
:10238000D1E00EEA11E089918F3F11F00E9499117E
:102390000C171D07C1F7DF91CF911F910F91089581
:1023A0008F929F92BF92CF92DF92EF92FF920F9304
:1023B0001F93CF93DF93D82EE92EF62E8A01C62FD6
:1023C000D0E0C556DE4F28812F3F09F453C0F89462
:1023D000E22FE295EF70F0E031A12F7081E090E004
:1023E00001C0880F2A95EAF7932F982B91A392A109
:1023F0008095892382A378940E94941189EA882E7B
:1024000081E0982EED2DFE2DBF01665F7F4FE12C00
:102410006801C094D094D401BD904D0181919191F7
:10242000AF0142505109BFEFBB1681F12B2D229510
:102430002F7030E0D90190962C9130E0BB2DBF7009
:1024400002C035952795BA95E2F720FD1FC0802B75
:10245000912BDA018D939C93EE24E3946E177F0702
:10246000D1F688818F3F11F00E9499116E2D8F2D2A
:102470000E949611DF91CF911F910F91FF90EF90E5
:10248000DF90CF90BF909F908F9008958C219D21D9
:10249000DA018D939C93E2CF0E94B0118AE0EDE1C6
:1024A000F3E0DF01982F1D929A95E9F7E3E1F3E05D
:1024B000DF011D928A95E9F785E00E94B6120E941D
:1024C0007F110895CF92DF92FF920F931F93CF93C6
:1024D000DF93CDB7DEB72A970FB6F894DEBF0FBEF5
:1024E000CDBF8E010F5F1F4F8AE0F80111928A95D0
:1024F000E9F7F12CCC24C394D12CA6016F2DC8018F
:102500000E94D011F394CC0CDD1CFEE0FF12F5CF3D
:102510004AE050E0B80183E193E00E94D72921E02E
:10252000009709F420E0892B41F08AE0F801A3E14B
:10253000B3E001900D928A95E1F745E06DE173E01B
:1025400083E193E00E94B712182F0E948311812F1C
:102550002A960FB6F894DEBF0FBECDBFDF91CF91A4
:102560001F910F91FF90DF90CF9008950895B0E0F4
:10257000A0E0EDEBF2E10C940B296C017B01042F40
:10258000C22F222379F081E08093BF020E9455215F
:102590009093BE028093BD0280E0CDB7DEB7E8E045
:1025A0000C942729D091BF02DD23B1F38091BD02A5
:1025B0009091BE020E946D21059770F310E0000F0C
:1025C000111FA801B601C7010E94D729892B31F03C
:1025D000A801B601C7010E94E429CD2F1092BF02C5
:1025E0008C2FDBCF0E94D10E08950E94EE200E9416
:1025F00012230E948B0E0E942C230E94C00E0E9468
:1026000039230E943E230E94F2120E9458230E9406
:102610009E0EF7CF9093E3018093E20108950F930C
:102620001F93CF938C01FB01C581CC2309F447C0D4
:102630000E947A0C8272F801E052F847EB30F10503
:1026400038F4EE58F54D0C94CA280E948219C0E067
:102650008C2FCF911F910F910895882329F00E940C
:102660007019F5CF8823D9F30E946019F0CF882321
:1026700029F00E940816EBCF8823D9F30E94F915A0
:10268000E6CF882329F00E942A16E1CF8823D9F3C8
:102690000E941916DCCF882329F00E944C16D7CF50
:1026A0008823D9F30E943B16D2CF882329F00E94B9
:1026B000D114CDCF8823D9F30E94B114C8CFC1E083
:1026C000C7CFEF92FF920F931F93CF93DF939B019E
:1026D000682F31110EC0442329F0E82FF0E0E659AD
:1026E000FC4F6491762F862FCDB7DEB7E6E00C94D1
:1026F0002929C32FD0E0E82FF0E0442321F0E65948
:10270000FC4FE491F0E046E0249FC00111240FEF5C
:1027100010E0B8010E948028AB01822F90E0880F62
:10272000991F25E5249FB001259F700D1124861B5C
:10273000970B982F990F980FB8016C1B7D0B6E9F0C
:10274000D0016F9FB00D7E9FB00D11248B2F939FF2
:1027500090011124232F3327B801621B730B6E9F46
:1027600090016F9F300D7E9F300D11247801E91A82
:10277000F108EC9EB001ED9E700DFC9E700D1124D1
:10278000672F7727061B170B0E9FE0010F9FD00DB9
:102790001E9FD00D11247D2F9E2F4230510599F0A0
:1027A00048F44115510569F04130510581F07B2F06
:1027B000832F07C04430510569F080F04630510541
:1027C000B1F7692F91CF9B2F8D2F7E2FFACF7E2FC0
:1027D000932FF7CF9D2F7B2F8E2FF3CF732F9B2F10
:1027E000FBCF41E00E946113089508950E94F11308
:1027F000089590910B01291B922FE091DB01F0913C
:10280000DC01242F462F682F892F90E00995089529
:10281000CF93DF93762FE901682F842F0E94F61360
:10282000962F672F9E01482F892F0E94F913DF9161
:10283000CF91089580912703982F9C7F29F483706E
:1028400084608093270308958C3AE8F38370886A44
:10285000F8CFB0E0A0E0EFE2F4E10C940B2988E0BF
:1028600090E00E94F5296B017C0183E290E00E94D8
:10287000ED29282F30E040E050E060E070E080E09B
:1028800090E000E20E943829B22FA32FF42FE52F09
:10289000D62FC72F97018601BC29A12BFE295E2FB9
:1028A000532B2B2F3A2F4F2F6D2F7C2FCDB7DEB709
:1028B000E8E00C942729B0E0A0E0E1E6F4E10C9414
:1028C000072949015A016B017C010E941A148401F5
:1028D000A4016A2D7B2D88E090E00E94232A9401B8
:1028E0004A2D5B2DB601C70100E20E945329622FD9
:1028F00083E290E00E94112ACDB7DEB7ECE00C94A1
:102900002329E7E2F3E085E0808311828FEF828361
:1029100083831482758125E030E04FEF5FEF60E044
:10292000868197810E945B14089590912B039330C8
:1029300018F49F5F90932B03882391F02091270335
:10294000309128034091290350912A0360912B0371
:1029500070912C0380912D0390912E030E945B14A3
:10296000089581E00E949514089590912B03992376
:1029700019F0915090932B03882391F02091270315
:10298000309128034091290350912A0360912B0331
:1029900070912C0380912D0390912E030E945B1463
:1029A000089581E00E94B51408950F931F93CF936B
:1029B0008091270380FF09C0E091DF01F091E001E1
:1029C0000995CF911F910F910895C0910D0100912C
:1029D000DB011091DC0180910E01C81768F780912E
:1029E0000B019C2F981B892F20E040E060E090E0D5
:1029F000F8010995CF5FEFCFEF92FF920F931F93EE
:102A0000CF93DF93D82F162F042F8091270380FFB9
:102A10000CC0C0910D01E090DB01F090DC018091D1
:102A20000E01C81738F00E94D514CDB7DEB7E6E026
:102A30000C94292980910B019C2F981B892F202F02
:102A4000412F6D2F90E0F7010995CF5FE8CF762FEA
:102A50009091270390FF0AC0682F842F0E94F113E2
:102A6000962F672F482F892F0E94FC140895CF932B
:102A7000DF93EC01EC81F0E0EB59FD4F4491E7E28C
:102A8000F3E0628181810E9427158C818F5F8C83A6
:102A9000DF91CF910895CF93DF93EC01E7E2F3E06C
:102AA000438162818C810E9427158C818F5F8C838A
:102AB000DF91CF910895CF93DF93EC0140912A03EA
:102AC0009C81892F817090FD842F692F627091FD08
:102AD000642F92FF40E00E94FC148C8190E00196EC
:102AE000877099278C83DF91CF910895B0E0A0E0A3
:102AF000ECE7F5E10C940C29D82FF62E142FE22EDA
:102B00009091270390FF2FC0E92FE695E695AE2F11
:102B1000B0E0A255BE4F8C918093FB029C7F943015
:102B200039F56D2F7F2D842F0E94F113962F672F7B
:102B3000482F892F0E94FC14D0932803F092290378
:102B400010932A03EE2079F02091270360912B0344
:102B500070912C033D2F4F2D512F80912D0390917B
:102B60002E030E945B14CDB7DEB7E7E00C94282952
:102B7000823019F410912A03DFCF863019F4D091F6
:102B80002803DACF8930D9F38931B1F6E9518E2F94
:102B90008170D82EE695F0E0EB59FC4FC49100E02F
:102BA00060910F01061718F00E94D514C5CF0C9F35
:102BB000C001112470E00E9480288D2FD1100CC01C
:102BC000860F20910D01200F3327331F412F6F2DCA
:102BD0000E9408140F5FE4CF861BF3CFE7E2F3E017
:102BE0009181282F438162818CE0890F0E947615A4
:102BF000089581E00E94EE150895E7E2F3E09181E7
:102C0000282F4381628184EF890F0E9476150895F1
:102C100081E00E94FD150895E7E2F3E062812CE077
:102C2000620F08F46FEF282F438181810E9476158F
:102C3000089581E00E940C160895E7E2F3E06281B6
:102C40002CE0621B08F460E0282F438181810E9400
:102C50007615089581E00E941D160895E7E2F3E0DD
:102C600043812CE0420F08F44FEF282F62818181CD
:102C70000E947615089581E00E942E160895E7E2DD
:102C8000F3E043812CE0421B08F440E0282F6281EE
:102C900081810E947615089581E00E943F16089573
:102CA00020E00E9476150895EF92FF921F93CF9334
:102CB000DF93EC0110E0EE24EA94F12C60910F0117
:102CC000161770F00E94D5149A818C8190FF1EC057
:102CD0008F5F8C83DF91CF911F91FF90EF900895CC
:102CE00020910D01210F3327331F70E0C7010E948F
:102CF0009428962F8C8140912A0360912903199F73
:102D0000800D11240E9408141F5FD8CF8150E1CF9D
:102D1000B0E0A0E0EEE8F6E10C940929FC01828124
:102D2000DFEF80FFD1E0C0E00091DB011091DC011A
:102D30002AE0A22E80910F01C81798F00E94D514A6
:102D40008091C102D13009F050C0811102C0809140
:102D50000F0181508093C102CDB7DEB7EAE00C9439
:102D6000252980910D0190910B01891B8C0F20E08A
:102D700040E060E090E0F801099594E0E92EF12C44
:102D8000B12CCC2ED12C8091C1028B0D8B303CF11B
:102D90006A2D0E947228892F082E000C990BC816E4
:102DA000D906B1F420910D012C0D3D2D311D8091DE
:102DB0002A038E9DA0018F9D500D11245595479596
:102DC0005595479560912903809128030E94081426
:102DD000BD0EF1E0EF1AF108B1F6CF5FABCF87FF80
:102DE000DBCF90910F01890FD7CF90E001966091D2
:102DF0000F0170E00E949428ADCF0F931F93CF93E3
:102E0000C0910D010091DB011091DC0180910E0158
:102E1000C81750F1C0E00091DB011091DC01609116
:102E20000F01C61770F10E94D514209109018091FD
:102E3000C002820F8093C00290910A01920F90937A
:102E40000A01191654F4082E000C990B40910F0139
:102E50004150550B841795071CF0219520930901CB
:102E6000CF911F910F91089580910B019C2F981B7A
:102E7000892F20E040E060E090E0F8010995CF5F05
:102E8000C5CFEC2FF0E070E0CF010E949428209194
:102E90000D01820F2091C002022E000C330BE217AD
:102EA000F307A4F020910A01022E000C330B2E1719
:102EB0003F0764F0282F30E040912A0360912903F6
:102EC000809128030E940814CF5FA9CF90910B0135
:102ED000891B20E040E060E090E0F8010995F4CF24
:102EE000B0E0A0E0E6E7F7E10C940729EC014C81A3
:102EF000042F10E09801D8010E94D8289B01AC0152
:102F00000E94EE284B015C01E0E2F0E0E01BF10BD7
:102F1000A5E5B0E0AC019B010E94EE286B017C01AD
:102F20009F01DF010E94D0289B01AC010E94F9287B
:102F30009B01AC01280D391D4A1D5B1DC701B6015F
:102F40000E94A828F22E822F90E039E23F1520F14E
:102F500043E0249F9001112435952795122F109559
:102F600000E085E5E82EEF1880910F01081720F1A9
:102F70000E94D5149C8181E0992319F0903219F4B4
:102F80008FEF8093080180910801890F8C83CDB762
:102F9000DEB7ECE00C94232925E530E0A901481BBD
:102FA000590BCA019A01220F331F280F391F37FF0F
:102FB000D3CF2F5F3F4FD0CF8E2D01FD8F2D20918E
:102FC0000D01200F3327331F412F609129030E94E9
:102FD00008140F5FC9CF0F931F93CF93DF938C011A
:102FE000D0E0C0E090910F019C171D0609F074F429
:102FF0000E94D514F801848190E001968170992790
:103000008483DF91CF911F910F910895F80144813E
:1030100020910D012C0F3D2F311D609129038091CE
:10302000280396959C171D0649F044F0442341F06F
:1030300040912A030E9408142196D4CF4423C1F35F
:1030400040E0F8CFB0E0A0E0E8E2F8E10C9403291A
:10305000FC016280448081E08483E5E6F2E07490C4
:10306000E4EEF2E0E491C0912A03C695C158D0E0A5
:10307000CC0FDD1FCD2FDD27812C25E0922EAA2439
:10308000AA94B12C55245A94E719EE2EF12C809174
:103090000F01881638F00E94D514CDB7DEB7E0E1F5
:1030A0000C941F29C82CD12C82E0861568F09C9CBA
:1030B000F0019D9CF00D1124EE53FD4F80912803EB
:1030C000808380912903818341101CC09C9CF00166
:1030D0009D9CF00D1124EE53FD4F1382128220911E
:1030E0000D012C0D3D2D311D9C9CF0019D9CF00D82
:1030F0001124EE53FD4F4281618180810E940814AA
:103100008394C5CF9C9C80019D9C100D11240E536F
:103110001D4FF80183818823F1F081508383859DC1
:10312000C0011124648170E00E948028FB01FF2708
:10313000EB59FD4F8491E82FE719E59DC00111245B
:10314000B7010E94802880912A03689FB001112452
:10315000F8017283C4CF0E94BA29B5010E94942855
:103160008C179D070CF0BBCFF2E0F61598F40E9487
:10317000BA29B5010E949428F80180830E94BA29D7
:10318000209129032695622F70E00E949428280F31
:10319000F80121839C9CF0019D9CF00D1124EE53BD
:1031A000FD4F128280912A03893C58F088EC9C9C48
:1031B000F0019D9CF00D1124EE53FD4F8483838319
:1031C0008ECF8431A0F784E1F2CFE7E2F3E02081F3
:1031D0002E7F208331814281538164817581868174
:1031E00097810E945B141092FC020E94D5140895EE
:1031F000609127036695669570E04BE050E080E1B2
:1032000091E00E94CA29892B19F481E08093FC0285
:103210000E9455219093F5028093F40208959091B5
:10322000270390FF34C09370811132C09460909353
:103230002703662391F020912703309128034091C2
:10324000290350912A0360912B0370912C038091E4
:103250002D0390912E030E945B14609127036695C5
:10326000669570E04BE050E080E191E00E94CA2951
:10327000892BB1F01092FC0281E08093F70240911B
:103280002A0360912903809128030E945016089513
:103290008B3210F0986ACBCF880F880F982BC7CF4E
:1032A0000E94F818E9CF682F90912703969596957C
:1032B00081E0890F8B3208F081E00E940F19089598
:1032C00081E00E9453190895682F909127039695E5
:1032D00096958FEF890F09F48AE20E940F190895DD
:1032E00081E00E946419089561E00E940F19089519
:1032F000E7E2F3E0808181608083869586950E9475
:10330000741908958091270380FF03C00E94E51877
:1033100008950E947819089560E00E940F19089599
:103320008091FA0281113CC00E9429142093270346
:10333000309328034093290350932A0360932B036F
:1033400070932C0380932D0390932E032C7FA1F474
:103350000E9481140E94291420932703309328038C
:103360004093290350932A0360932B0370932C03FB
:1033700080932D0390932E030E941A141092FC0246
:10338000E091D901F091DA0109958091270380FF3E
:1033900004C0869586950E948C1981E08093FA027C
:1033A00008950F931F93CF93DF938091FC0288239E
:1033B000C1F18091FB02E0912703E695E695E81BB9
:1033C000E093F602823091F5F0E0EF59FD4FE49181
:1033D000CE2FD0E007E315E18091F702882361F05A
:1033E0001092F7020E9455219093F5028093F40207
:1033F0001092F9021092F8020E945521E091F40215
:10340000F091F5028E1B9F0B8F3F9F4750F4EC0FFE
:10341000FD1FF093F502E093F40284EF92E0F801CF
:103420000995DF91CF911F910F910895863049F44E
:10343000F0E0E25AFD4FE491CE2FD0E00BE415E12D
:10344000CBCF893051F4E695F0E0E55AFD4FE49199
:10345000CE2FD0E004E516E1BFCF8F3051F4E695D2
:10346000F0E0E85AFD4FE491CE2FD0E008E816E1F5
:10347000B3CF853149F4F0E0EB5AFD4FE491CE2F04
:10348000D0E00DEF16E1A8CFC8E2D0E000E717E1E9
:10349000883109F4A1CF833239F4E3E5F2E0C59134
:1034A000D4910BE515E198CFC4EFD1E00BEE17E115
:1034B000843209F491CFC0EDD7E005EF13E18532F6
:1034C00009F08ACF8E2F63E00E946628E92FF0E092
:1034D000E05BFD4FE491CE2FD0E002E218E17CCF1B
:1034E00008950E94D119089586E090E00E94ED2988
:1034F0000895682F86E090E00E94112A089585E3E0
:1035000080932F030E94791A08950E94741A809361
:103510002F0382FF0E947F1A80912F03883320F0AF
:103520008770806380932F0390912F03892F817080
:1035300090FF04C0892F8695869586950E94861BEC
:10354000089580912F03982F96959695969596308D
:1035500040F49F5F990F990F990F8770892B809383
:103560002F0380912F03816080932F030E94791A8B
:1035700080912F038695869586950E94861B0895D7
:1035800080912F03982F987F79F0885080932F0394
:10359000887F91E009F490E080912F0390FB80F9FF
:1035A00080932F030E94791A80912F038695869528
:1035B00086950E94861B089580912F0380FD13C07D
:1035C000816080932F03813019F489E080932F0369
:1035D00080912F030E94791A80912F0386958695FA
:1035E00086950E94861B089580912F0380FF08C056
:1035F0008E7F80932F030E94791A80E00E94861BA1
:10360000089580912F0380FF03C00E94F41A08954B
:103610000E94DC1A089590912F03892F8695869534
:1036200086958F5F8F7197708730E0F4880F880FD1
:10363000880F892B80932F0380912F03887F91E03F
:1036400009F490E080912F0390FB80F980932F0381
:103650000E94791A80912F038695869586950E94FF
:10366000861B089590932F03E7CF873008F086E0FC
:1036700090912F039770282F220F220F220F922B49
:1036800090932F03987F21E009F420E090912F037D
:1036900020FB90F990932F030E94861B08950E94AF
:1036A000351B80912F030E94791A08959C01FB011C
:1036B0008581882349F12230F8E73F07F9F040F48B
:1036C0002115E8E73E0769F02130384779F0089581
:1036D000243098E7390779F058F02530384789F0D9
:1036E000089586E00E944F1B80E0089580E0FACFA5
:1036F0000E94C01AF9CF0E94A11AF6CF0E94011BA6
:10370000F3CF0E940B1BF0CF81E008958F929F9220
:10371000AF92BF92EF92FF920F931F93CF93DF93DD
:103720008730B0F5811135C090918000977F9093DC
:103730008000A0918600B0918700282F30E00E9481
:10374000D82826E030E040E050E00E94A828890117
:103750009A0180918600909187006CE070E00E9451
:10376000802860177107C8F0C80169E070E00E9406
:10377000802870938D0060938C00DF91CF911F9112
:103780000F91FF90EF90BF90AF909F908F90089512
:1037900086E0909180009860CACF809186009091D9
:1037A0008700E0908600F0908700E0918600F0911D
:1037B0008700C6E0D0E0BE010E948028060F171FD8
:1037C000211D311D4801590185E0880C991CAA1C56
:1037D000BB1C8A95D1F7C701BE010E9480289F01BA
:1037E00050E040E0260F371F411D511DC501B401B7
:1037F0000E94A82849015A01E0918600F0918700B3
:10380000CA01B9010E9456289B01AC01DF010E9448
:10381000EE289B01AC01C501B4010E9456282FE09F
:1038200096958795779567952A95D1F700918600AB
:103830001091870030E020E00617170728073907A6
:1038400008F097CF609186007091870092CF08951D
:10385000279A2F988AE08093800089E180938100E5
:103860008FEF9FEF90938700809386000E94851AC8
:103870000895879A0895FC01EE0FFF1FE80FF91FC6
:10388000E05DFC4F6183408322830895E0E3F3E031
:10389000818360834283339693E0EE34F907C1F766
:1038A000089531B33F7721B320684FB7F89480E390
:1038B00093E0FC015191CF0168E021BB000000C002
:1038C00057FF31BB550F000000C000C000C031BB26
:1038D00000C06A9591F7F3E08E349F0751F74FBF10
:1038E0008FE594E00197F1F700C0000008950E9471
:1038F0009C0D089580E00E948611817008950E94B9
:1039000062122FEF86E791E0215080409040E1F76E
:1039100000C000000E9462120E947A1C882321F0DD
:103920000E94771C0E94A02108950E947F1C089588
:10393000EBEFE80FEF3308F066C0F0E0E358F54D29
:103940000C94CA280E94420E81E008958091BC0226
:10395000807F8093BC0281E08093FD0208950E94E5
:10396000BE03F2CF9091BC02892F8E7F90FF8160C1
:103970008093BC0280FDE8CF817F8093BC02E4CFBE
:103980009091BC02892F8D7F91FF82608093BC0251
:1039900081FFDACF8091BC028160EFCF9091BC02B1
:1039A000892F8B7F92FF84608093BC0282FDF2CFCF
:1039B000CBCF9091BC02892F877F93FF8860809343
:1039C000BC0283FDE7CFC0CF0E94FE079091110398
:1039D000892F97FB87F9805880931103B5CF81E039
:1039E00090E00E944B080E94FE07AECF895321E071
:1039F00030E0A90102C0440F551F8A95E2F7CA01C1
:103A0000F0CF8D51F4CF80E0089580E008950E94BA
:103A1000051D0895CF93C82F8091FD02882331F0B2
:103A2000813099F01092FD0280E00DC00E947A0C66
:103A30008232D1F78C2F0E94051D811116C08C2F68
:103A40000E94981C8170CF9108950E947A0C823256
:103A500089F38C2F0E94071D811105C0C43171F0BC
:103A600038F4CB3079F781E0EDCF81E090E0EACF18
:103A7000C93221F0C833B9F380E0E4CF1092FD02DF
:103A8000FBCFCF93DF93EB0186319C4711F50E946A
:103A90007A0C9D81992399F08A7A91E009F490E05B
:103AA0009093FE02811109C089E20E9415200E94B4
:103AB0002E0D80E0DF91CF91089585E3F6CF8091C0
:103AC000FE02811104C089E20E942F20F0CF85E31D
:103AD000FBCF81E0EFCFCF93DF93EC01FB0185813A
:103AE000882309F4D2C09E0130572332310508F0F3
:103AF000B2C00E94BF0D9093120380931103FE0188
:103B0000E150F047E232F10520F4E454F54D0C9415
:103B1000CA288091110381608093110393C0809122
:103B200012038860809312038DC08091110382601C
:103B3000F3CF809111038460EFCF809111038860EF
:103B4000EBCF809112038160EDCF809112038260F0
:103B5000E9CF809111038061DFCF809111038062F2
:103B6000DBCF809111038064D7CF0E94FE07809144
:103B700011038068D1CF809111038C60CDCF8091EB
:103B800012038360CFCF809111038E7FC5CF8091C8
:103B90001203877FC7CF809111038D7FBDCF8091A6
:103BA00011038B7FB9CF80911103877FB5CF8091AF
:103BB00012038E7FB7CF809112038D7FB3CF809198
:103BC00011038F7EA9CF809111038F7DA5CF8091A6
:103BD00011038F7BA1CF0E94FE07809111038F7785
:103BE0009BCF80911103837F97CF809112038C7FAD
:103BF00099CF8091110382FB992790F921E09227B8
:103C000090FB82F990FB83F987CF80911203982F64
:103C1000909591708E7F892B90FB81F983CF909145
:103C20001103892F8F7B96FF806476CF0E94FE0759
:103C300090911103892F97FB87F980586DCF81E010
:103C40000E94450E80911103909112030E94C40DB1
:103C50000E94FE0780E0DF91CF91089580E0F0CFD1
:103C600090911103892F8F7E94FF806155CF9091A1
:103C70001103892F8E7F90FF81604ECF90911203A8
:103C8000892F877F93FF88604DCF81E0E4CF0F932A
:103C90001F93CF93DF93C42FD22FFC0185818823FC
:103CA000C9F0409301030E94552190930003809333
:103CB000FF0280E28C0F883040F4C77081E001C0C1
:103CC000880FCA95EAF70E94B405DF91CF911F9142
:103CD0000F91089510910103141332C08091FF02D7
:103CE000909100030E946D21883C910548F5C0E247
:103CF000CD0F1D17B9F080E2810F883040F41770A6
:103D000081E001C0880F1A95EAF70E94BB05C83010
:103D100048F481E09D2F977001C0880F9A95EAF7CB
:103D20000E94B405802F0E94AB05C83070F6D77092
:103D300081E001C0880FDA95EAF70E94BB05C5CF84
:103D400080E28C0F883008F6C77081E001C0880FD0
:103D5000CA95EAF7F2CF0F93DB0188519C47873071
:103D60009105A0F5FC01E252F54D0C94CA2806E23B
:103D700021EE41EE6AE17CE7CD010E94471E80E022
:103D80000F91089507E225EE45EE6BE17CE7F4CF55
:103D900006E221EE40EE68E17CE7EECF07E225EE99
:103DA00044EE69E17CE7E8CF06E221EE42EE6CE109
:103DB0007CE7E2CF07E225EE46EE6DE17CE7DCCF63
:103DC00008E221E045EE6EE17CE7D6CF15968C91B6
:103DD000882319F010920103D3CF81E0D1CF9093C3
:103DE0000703809306030895E0910603F09107030B
:103DF000309729F00190F081E02D0995089580E039
:103E000008950E94F41E0895E0910603F0910703BF
:103E1000309721F00280F381E02D09950895E0911B
:103E20000603F0910703309739F026E0DC012C936C
:103E30000480F581E02D09950895A3E0B0E0E3E268
:103E4000FFE10C94112920910403309105032817F8
:103E50003907A1F09093050380930403E0910603D2
:103E6000F0910703309751F023E029839B838A83E5
:103E70000084F185E02DCE01019609952396E2E0BC
:103E80000C942D29A3E0B0E0E8E4FFE10C941129A3
:103E9000209102033091030328173907A1F0909372
:103EA000030380930203E0910603F0910703309728
:103EB00051F024E029839B838A830084F185E02DDF
:103EC000CE01019609952396E2E00C942D29CF931B
:103ED000DF93C0910601D091070122960E94AC2089
:103EE000813081F48091110387FF0CC0C0910401DF
:103EF000D091050122969EE180E0915028F4DF9157
:103F0000CF91089596E0F8CF29912223B1F38F5FE6
:103F1000F4CFCF93C82F811102C080E024C00E944B
:103F2000AC20813011F58091110387FF1EC0EC2F6A
:103F3000E695E695E695EE3180F780910401909143
:103F40000501E80FF92FF11D228130E0C77081E0F3
:103F500090E002C0880F991FCA95E2F72823392301
:103F600081E0232BD1F2CF910895809106019091A9
:103F70000701FC013296089621912C1721F0E817D1
:103F8000F907D1F7CACF81E0EECF9C01FC01329650
:103F90009FEF80E04191461751F09F3F19F4411186
:103FA00001C0982F8F5F8630A9F79F3F09F40895CD
:103FB000290F311D97FD3A95F90162830895FC019F
:103FC000329608962191261303C0DF0111971C92A7
:103FD000E817F907B9F70895E62FE695E695E6950F
:103FE000EE3168F4E80FF92FF11D677021E030E041
:103FF00001C0220F6A95EAF78281822B828308959D
:10400000E62FE695E695E695EE3170F4E80FF92F88
:10401000F11D677021E030E001C0220F6A95EAF7D8
:1040200020958281282322830895CF93C82F0E9450
:10403000AC206C2F813061F48091110387FF08C0A0
:1040400080910401909105010E94EC1FCF91089589
:1040500080910601909107010E94C51FF7CFCF9371
:10406000C82F0E94AC206C2F813061F48091110325
:1040700087FF08C080910401909105010E940020F3
:10408000CF91089580910601909107010E94DF1F52
:10409000F7CF0E94AC20813079F48091110387FF23
:1040A0000BC0E0910401F091050132968EE1DF0131
:1040B0001D928A95E9F70895E0910601F0910701B4
:1040C000329686E0F4CF08950E946320089581110E
:1040D0000EC081E080931E0160911B0170911C0154
:1040E00080911D0190911E010E946420089582E03C
:1040F000F1CF83E080931E0160911B0170911C0140
:1041000080911D0190911E010E94642008950E94DB
:104110006720089581E080931E0160911B017091DA
:104120001C0180911D0190911E010E946420089540
:104130000E948A20089591E0811101C090E090933F
:104140001D0160911B0170911C0180911D019091D6
:104150001E010E946420089580911D01089580939E
:104160001C0160911B0170911C0180911D019091B7
:104170001E010E946420089580911C01089580937F
:104180001B0160911B0170911C0180911D01909198
:104190001E010E946420089580911B0108950895D6
:1041A00008950E94D0200895089508950E94CF2078
:1041B0000895CF930E94D4200E9462120E94D520BD
:1041C000C0E08C2F0E948611892B31F4CF5FC5305F
:1041D000C1F780E0CF91089581E0FCCF85B780687A
:1041E00085BF85B7806885BF08951F921FB61F924F
:1041F00011248F939F93AF93BF93809108038111F4
:1042000013C080914E0390914F03A0915003B09141
:1042100051034196A11DB11D80934E0390934F030E
:10422000A0935003B0935103BF91AF919F918F9191
:104230001F901FBE1F90189580915603843031F156
:104240000E9438041092080388E190E020E40FB641
:10425000F894A895809360000FBE2093600083B708
:10426000817F846083BF83B7816083BF78948895A2
:1042700083B78E7F83BF0FB6F894A89580916000B6
:10428000886180936000109260000FBE08950E94C4
:10429000FE070E944004089582E084BD93E095BD2E
:1042A0009AEF97BD80936E0008952FB7F894809190
:1042B0004E0390914F03A0915003B09151032FBF33
:1042C00008952FB7F89460914E0370914F03809139
:1042D0005003909151032FBF08959C014FB7F8945C
:1042E00080914E0390914F03A0915003B0915103E0
:1042F0004FBF821B930B089578941F921FB61F9295
:1043000011248F939F93AF93BF9380914E0390910D
:104310004F03A0915003B09151030196A11DB11D0F
:1043200080934E0390934F03A0935003B093510397
:10433000BF91AF919F918F911F901FBE1F901895B5
:1043400081E08093E00080E28093D8001092C90061
:104350008FE19EE40197F1F700C0000087E090EB49
:10436000DC0180935F0390936003A0936103B0939B
:10437000620388E19CE00FB6F894A89580936000F2
:104380000FBE90936000FFCF88E19CE00FB6F894D9
:10439000A895809360000FBE90936000FFCF0895B2
:1043A0009B01BA01909156039430E9F48F70809389
:1043B000E9009FEF8091E800915085FD06C085EDF2
:1043C0008A95F1F700009111F5CF8091E80085FF03
:1043D0000AC050E040E0C9010E94CF238091E8006C
:1043E0008E778093E800089543E050E0BC0182E0BE
:1043F0000E94D021089540E250E0BC0182E00E947A
:10440000D0210895CF93DF93EC010E94AC2048E0C7
:1044100050E0BE0181E00E94D02188E0FE01A9E0C9
:10442000B3E001900D928A95E1F7DF91CF91089565
:1044300080915503811109C00E945F250E94BC250F
:104440008091E20084608093E20008951092550309
:1044500008950E948A2081E00E949B200895609127
:10446000520381E0611101C080E00E94792008952B
:104470009091560381E0943009F080E060915203FE
:104480000E948720089542E061EC81E00E94DB24D5
:1044900042E261EC82E00E94DB249091560381E0CD
:1044A000943009F080E0609152030E9467200895E3
:1044B00080915803833009F461C030F48130D1F128
:1044C000823009F49EC008958A3009F48AC08B3086
:1044D00009F46FC0893009F050C0809157038132D0
:1044E00009F04BC080915B0390915C03029708F048
:1044F00044C08091E800877F8093E8008091E800C5
:1045000082FF37C09091F3008091F200029731F45E
:104510008091F100813011F0863021F48091F1001A
:104520000E94AF208091E8008B778093E8000E9482
:104530000F2523C080915703813AF9F48091E80058
:10454000877F8093E80080915B0390915C03892BC7
:1045500061F468E089E093E070E00E941E2480919D
:10456000E8008B778093E800089560E090E080E0B9
:10457000F3CF809156038111C1CF089580915703E5
:10458000813AD9F780915B0390915C03892BA9F75D
:104590008091E800877F8093E8008091E80080FFA9
:1045A000FCCF0E94AC208093F1008091E8008E77D0
:1045B000BCCF80915703813201F780915B039091CA
:1045C0005C03892BD1F68091E800877F8093E80017
:1045D0000E940F25809159030E949B200E94FE0794
:1045E000089580915703813241F68091E800877FDA
:1045F0008093E8000E940F2580915A030E94BF20FB
:10460000089580915703813A09F0B7CF8091E8006F
:10461000877F8093E8008091E80080FFFCCF0E94B4
:10462000CC20C1CF84B7877F84BF0FB6F894A895FC
:1046300080916000886180936000109260000FBEDE
:1046400080E890E00FB6F894809361009093610049
:104650000FBE0E94982008950E945F250E94BC25ED
:10466000E2EEF0E080818460808378940E943B28B1
:1046700008958FE191E00E94EF1E08958091560306
:10468000853031F480915603853019F00E9447211E
:1046900008950E941C210E94D920882399F38091BB
:1046A0005403882379F30E94B9230E94FE07EACFBE
:1046B00008959A0140915D0350915E030E94612329
:1046C0000895492F55274330510519F168F44130B9
:1046D000510509F444C04230510509F445C090E049
:1046E00080E050E040E025C04132510549F14232BE
:1046F0005105A9F784E490E04AE555E0611571059C
:10470000C1F08DE690E04DEE54E06130710589F026
:10471000E6CF99278130910581F0009729F0029723
:10472000F1F6EAE6F4E002C0ECE9F4E0849190E00E
:10473000AF01F901518340830895ECE7F4E0F6CF2F
:1047400089E090E042EB54E06115710591F389E056
:1047500090E04BEC54E06130710559F3C0CF82E139
:1047600090E04BED54E0E5CF8BE390E040EA54E07D
:10477000E0CF80E189BD82E189BD09B400FEFDCFB3
:104780008091D8008F7D8093D8008091E000826076
:104790008093E0008091E00081FDFCCF0895AF920E
:1047A000BF92CF92DF92FF920F931F93CF93DF932D
:1047B0006C01EB018A010E942E25F82E811123C085
:1047C0000115110539F0F80180819181C81BD90BC1
:1047D000C80ED91EB12CA12C2097A9F08091E80019
:1047E00085FD22C08091E8008E778093E800011556
:1047F0001105A1F0F80180819181A80EB91EB18246
:10480000A08285E0F82E8F2DDF91CF911F910F911F
:10481000FF90DF90CF90BF90AF9008950E942E251B
:104820008823D1F2F82EEFCFF60181916F018093AA
:10483000F1002197FFEFAF1ABF0ACECFFC018091A4
:104840005D0390915E0386179707A0F061157105CF
:1048500029F49091E8009E779093E80090E061152C
:10486000710551F4911108C08091E80082FF34C0B5
:1048700080E00895BC01F2CF809156038823C1F1F6
:104880008530C1F18091E80083FD30C08091E8005F
:1048900082FDEACF8091E80080FFE1CF8091F300B4
:1048A0002091F200382F6115710519F0283031057B
:1048B00058F091E02830310509F090E02091E800AF
:1048C0002E772093E800CBCF81918093F100615047
:1048D00071092F5F3F4FE7CF80915603882341F046
:1048E000853041F08091E80083FFBECF81E00895DC
:1048F00082E0089583E00895FC0180915D0390912A
:104900005E0386179707A0F06115710529F4809161
:10491000E8008E778093E80090E06115710551F40E
:10492000911108C08091E80082FF35C080E00895B1
:10493000BC01F2CF809156038823C9F18530C9F1BB
:104940008091E80083FD31C08091E80082FDEACFCC
:104950008091E80080FFE1CF8091F3002091F20088
:10496000382F6115710519F02830310558F091E0A4
:104970002830310509F090E08091E8008E7780932F
:10498000E800CBCF84918093F1003196615071099A
:104990002F5F3F4FE6CF80915603882341F085304B
:1049A00041F08091E80083FFBDCF81E0089582E06F
:1049B000089583E00895982F973028F08F708093A2
:1049C000E90081E008959093E900242F762F50E0CC
:1049D000981731F07091EC002091ED005091F000AB
:1049E00021FD02C09F5FE8CF3091EB003E7F309306
:1049F000EB003091ED003D7F3093ED003091EB0006
:104A000031603093EB007093EC002093ED005093F5
:104A1000F0002091EE0027FDE5CF80E00895809121
:104A2000570387FF13C08091E80082FF06C0809182
:104A3000E8008B778093E80004C0809156038111D1
:104A4000F2CF0895809156038823D9F38091E8002E
:104A500080FFF8CF8091E8008E77ECCF2091E400C2
:104A60003091E50095E6A9012091EC00822F81703C
:104A700020FF06C08091E80080FF06C080E0089516
:104A80002091E80022FD1AC080915603882389F006
:104A9000853089F08091EB0085FD0FC02091E40006
:104AA0003091E50042175307F9F29150E1F684E0A6
:104AB000089582E0089583E0089581E008950E94BA
:104AC000CE250E94D625E0EEF0E0808181608083D3
:104AD000E8EDF0E080818F77808319BCA7EDB0E02E
:104AE0008C918E7F8C9380818F7E80831092550372
:104AF00008950F931F93CF93DF930E94CE250E94BA
:104B0000D625C8EDD0E088818F778883888180683A
:104B1000888388818F7D888319BC109256031092F8
:104B20005203109254031092530300EE10E0F80168
:104B300080818B7F808388818160888342E060E010
:104B400080E00E94DB24E1EEF0E080818E7F8083B4
:104B5000E2EEF0E0808181608083808188608083E4
:104B6000F80180818E7F8083888180618883DF91D6
:104B7000CF911F910F910895E8EDF0E080818F7E35
:104B80008083E7EDF0E080818160808384E082BFF4
:104B900081E0809355030E9479250895E8EDF0E0C7
:104BA00080818E7F80831092E20008951092DA0057
:104BB0001092E10008951F920F920FB60F921124E8
:104BC0002F933F934F935F936F937F938F939F9315
:104BD000AF93BF93EF93FF938091E10082FF0BC0EF
:104BE0008091E20082FF07C08091E1008B7F80937B
:104BF000E1000E943A288091DA0080FF19C080917C
:104C0000D80080FF15C08091DA008E7F8093DA0093
:104C10008091D90080FF96C080E189BD82E189BD85
:104C200009B400FEFDCF81E0809356030E94182254
:104C30008091E10080FF19C08091E20080FF15C0E3
:104C40008091E2008E7F8093E2008091E20080619B
:104C50008093E2008091D80080628093D80019BCD4
:104C600085E0809356030E942F228091E10084FF0B
:104C70002BC08091E20084FF27C080E189BD82E1E2
:104C800089BD89B5982F917080FFFBCF8091D800A6
:104C90008F7D8093D8008091E1008F7E8093E1002A
:104CA0008091E2008F7E8093E2008091E20081603B
:104CB0008093E20080915203882309F449C084E084
:104CC000809356030E9438228091E10083FF29C01F
:104CD0008091E20083FF25C08091E100877F80936F
:104CE000E10082E080935603109252038091E1002C
:104CF0008E7F8093E1008091E2008E7F8093E200BE
:104D00008091E20080618093E20042E060E080E018
:104D10000E94DB248091F00088608093F0000E9464
:104D20002922FF91EF91BF91AF919F918F917F9138
:104D30006F915F914F913F912F910F900FBE0F9008
:104D40001F90189519BC109256030E94262270CF0E
:104D50008091E30087FD93E090935603B3CF1F92B9
:104D60000F920FB60F9211242F933F934F935F939F
:104D70006F937F938F939F93AF93BF93CF93DF9363
:104D8000EF93FF93D091E900DF708091EC00C82F82
:104D9000C17080FDC0E81092E9008091F000877F2B
:104DA0008093F00078940E94F3261092E90080919D
:104DB000F00088608093F000CD2BCF70C093E900A5
:104DC000FF91EF91DF91CF91BF91AF919F918F9123
:104DD0007F916F915F914F913F912F910F900FBEF7
:104DE0000F901F901895AAE2B0E0E9EFF6E20C945C
:104DF000102987E593E02091F100FC012193CF0178
:104E0000F3E08F359F07B9F70E9458228091E800A0
:104E100083FF1EC180915703909158039A3008F088
:104E200017C1E92FF0E0EB51F54D0C94CA288038FA
:104E300099F0823809F00CC180915B038F70873044
:104E400008F006C18093E9008091EB0085FB88277C
:104E500080F91092E90006C08091530390915403A9
:104E6000911182609091E800977F9093E800809381
:104E7000F1001092F1008091E8008E77E5C0882360
:104E800009F4D3C0823009F0E3C080915903811145
:104E9000D6C080915B038F702FEF280F263008F06B
:104EA000D7C08093E9002091EB0020FFC8C0933069
:104EB00031F48091EB0080628093EB00C0C0909150
:104EC000EB0090619093EB0021E030E001C0220FF5
:104ED0008A95EAF72093EA001092EA008091EB00AD
:104EE0008860EACF8111B4C0109159031F77809177
:104EF000E3008078812B8093E3008091E800877F36
:104F00008093E8000E940F258091E80080FFFCCF8D
:104F10008091E30080688093E30082E0111183E0D8
:104F20008093560395C08058823008F091C08091DC
:104F3000590390915A038C3D23E09207A1F583E039
:104F40008A838AE289834FB7F894DE01139620E0C2
:104F50003EE051E2E32FF0E050935700E49120FF50
:104F600003C0E295EF703F5FEF708E2F90E0EA3064
:104F7000C0F0C7968D939D932F5F243159F74FBF93
:104F80008091E800877F8093E8006AE270E0CE01BC
:104F900001960E941E248091E8008B778093E800A0
:104FA00057C0C096E7CF60915B0370915C03AE0180
:104FB0004F5F5F4F0E945923BC01892B09F448C001
:104FC0009091E800977F9093E80089819A810E94F0
:104FD0007C24E1CF8038E1F58091E800877F8093E1
:104FE000E800809152038093F10045CF811130C0D9
:104FF00090915903923060F58091E800877F80930B
:10500000E800909352030E940F2580915203882359
:1050100011F084E005C08091E30087FDFACF81E0C4
:10502000809356030E94432213C08091590381301C
:1050300079F481E0933009F080E08093540310927A
:10504000E9008091E800877F8093E8000E940F25A7
:105050008091E80083FF0AC08091E800877F8093F9
:10506000E8008091EB0080628093EB00AA96E3E079
:105070000C942C290895CF93809156038823A1F096
:10508000C091E900CF709091EC00892F817090FD64
:1050900080E8C82B1092E9008091E80083FD0E940F
:1050A000F326CF70C093E900CF910895DB018F9371
:1050B0009F930E94EE28BF91AF91A29F800D911DFA
:1050C000A39F900DB29F900D11240895991B79E034
:1050D00004C0991F961708F0961B881F7A95C9F788
:1050E0008095089587FB082E062687FD819567FD2C
:1050F00061950E9466280EF4919507FC81950895AC
:10510000AA1BBB1B51E107C0AA1FBB1FA617B707ED
:1051100010F0A61BB70B881F991F5A95A9F7809509
:105120009095BC01CD01089597FB072E16F40094CD
:1051300007D077FD09D00E94802807FC05D03EF4F7
:10514000909581959F4F0895709561957F4F089533
:10515000A1E21A2EAA1BBB1BFD010DC0AA1FBB1F7B
:10516000EE1FFF1FA217B307E407F50720F0A21BED
:10517000B30BE40BF50B661F771F881F991F1A945A
:1051800069F760957095809590959B01AC01BD0184
:10519000CF010895EE0FFF1F0590F491E02D0994C3
:1051A0000E94D828332312F48A1B9B0B0C94E92805
:1051B000A29FB001B39FC001A39F700D811D112458
:1051C000911DB29F700D811D1124911D08950E94A3
:1051D000D828B7FF0895821B930B08950E94D82802
:1051E000A59F900DB49F900DA49F800D911D11243B
:1051F0000895B7FF0C94EE280E94EE28821B930BB3
:1052000008952F923F924F925F926F927F928F926A
:105210009F92AF92BF92CF92DF92EF92FF920F9345
:105220001F93CF93DF93CDB7DEB7CA1BDB0B0FB64F
:10523000F894DEBF0FBECDBF09942A88398848880C
:105240005F846E847D848C849B84AA84B984C884A2
:10525000DF80EE80FD800C811B81AA81B981CE0F99
:10526000D11D0FB6F894DEBF0FBECDBFED0108957E
:10527000002E083090F0982F872F762F652F542F0F
:10528000432F322F22270850F4CF220F331F441F01
:10529000551F661F771F881F991F0A95B2F7002DAB
:1052A000089597FD1094002E083098F00850232F91
:1052B000342F452F562F672F782F892F912DF4CF1C
:1052C0001594979587957795679557954795379551
:1052D00027950A95AAF71124002D08958F929F9281
:1052E000AF92BF92CF92DF92EF92FF92CF93DF9374
:1052F000EC01688179818A819B8161157105810545
:10530000910521F464E279ED8BE597E02DE133EF2F
:1053100041E050E00E94452A49015A019B01AC013D
:10532000A7EAB1E40E94EE286B017C01ACEEB4EF79
:10533000A50194010E94FC28DC01CB018C0D9D1D70
:10534000AE1DBF1DB7FF03C00197A109B0488883F8
:105350009983AA83BB839F77DF91CF91FF90EF90D2
:10536000DF90CF90BF90AF909F908F9008950E9454
:105370006E29089580E091E00E946E290895B0E0C2
:10538000A0E08093000190930101A0930201B093EB
:1053900003010895FC014150504030F00190061681
:1053A000D1F73197CF010895882799270895FB01F8
:1053B000DC0104C08D910190801921F441505040CE
:1053C000C8F7881B990B0895FB01DC0102C001900E
:1053D0000D9241505040D8F70895F999FECF92BDF3
:1053E00081BDF89A992780B50895A6E1B0E044E020
:1053F00050E00C94372AA8E1B0E042E050E00C9471
:10540000372ADC01A40FB51F4150504048F0CB01B2
:10541000840F951F2E910E94122A41505040D0F7C0
:105420000895262FF999FECF92BD81BDF89A019774
:1054300000B4021639F01FBA20BD0FB6F894FA9ADC
:10544000F99A0FBE08950396272F0E94122A0E94F0
:10545000112A252F0E94122A242F0C94122A019619
:10546000272F0E94122A0C94112ADC01CB01FC0187
:10547000F999FECF06C0F2BDE1BDF89A319600B4AD
:105480000D9241505040B8F70895052E97FB1EF439
:1054900000940E945C2A57FD07D00E94A82807FCB0
:1054A00003D04EF40C945C2A50954095309521958C
:1054B0003F4F4F4F5F4F0895909580957095619540
:1054C0007F4F8F4F9F4F0895F894FFCF0306030639
:1054D00053065306B806320632063206D40645078E
:1054E0005407540725132D13321337133C1341135C
:1054F00046134B13501355135A13AF1CA61CB21C62
:10550000A41C031D031DA41C031D031DCE1C031D91
:10551000D91CE41C031D031D031D031DA41C031D36
:10552000031DA41C031DC01C031D031D011D011D23
:10553000011D011D011D011D011D011D011DEF1C8E
:10554000031DAF1CA21C031D031D031D031D031D12
:10555000031D031D031D031D031DEF1C031D031D60
:10556000A41C031DF61CF61CF61CF61CF61CF61CEF
:10557000F61CF61CF61CEF1CC31D371ECB1D951D1B
:10558000991DCF1D9D1DD31DDF1DA91D301EAD1DF5
:10559000E31DB11DE71D0F1EB51DEB1D161EBB1D26
:1055A000F11DF91DA11DD71DA51DDB1DBF1DF51D7D
:1055B000051E1F1E2E1E8F1DC71D3E1EC81ECE1E81
:1055C000B71EC21ED41EDA1EE01E17273F2728284A
:0E55D0003F272828722793272828EA27F62746
:1055DE00010000007E029E02010102000A000A0A7A
:1055EE0001191A1B1C1D1E1F20212200000100BCC8
:1055FE00200222FB21CF21F421E200E900EA00B5CE
:10560E0000B600B700CD008301CC008A0192019450
:10561E00012102230224022502260227022A02B3B6
:10562E0000B4006F0070009F01CB019F02A00281A9
:10563E008283E200E900EA00B500B600B700CD00B3
:10564E008301CC008A0192019401210223022402DB
:10565E002502260227022A02B300B4006F00700052
:10566E009F01CB019F02A002818283F0F1C6676683
:10567E00369431323534979633909192939500014A
:10568E00020202020606060909090909090F0F0F8F
:10569E000F0F0F1515151819191919191919191997
:1056AE00192324252525252525391C3B1C461C514F
:0256BE001C00CE
:00000001FF
